{
  "_format": "hh-sol-artifact-1",
  "contractName": "SherryChristmas",
  "sourceName": "contracts/SherryChristmas.sol",
  "abi": [
    {
      "inputs": [],
      "stateMutability": "nonpayable",
      "type": "constructor"
    },
    {
      "inputs": [
        {
          "internalType": "address",
          "name": "sender",
          "type": "address"
        },
        {
          "internalType": "uint256",
          "name": "balance",
          "type": "uint256"
        },
        {
          "internalType": "uint256",
          "name": "needed",
          "type": "uint256"
        },
        {
          "internalType": "uint256",
          "name": "tokenId",
          "type": "uint256"
        }
      ],
      "name": "ERC1155InsufficientBalance",
      "type": "error"
    },
    {
      "inputs": [
        {
          "internalType": "address",
          "name": "approver",
          "type": "address"
        }
      ],
      "name": "ERC1155InvalidApprover",
      "type": "error"
    },
    {
      "inputs": [
        {
          "internalType": "uint256",
          "name": "idsLength",
          "type": "uint256"
        },
        {
          "internalType": "uint256",
          "name": "valuesLength",
          "type": "uint256"
        }
      ],
      "name": "ERC1155InvalidArrayLength",
      "type": "error"
    },
    {
      "inputs": [
        {
          "internalType": "address",
          "name": "operator",
          "type": "address"
        }
      ],
      "name": "ERC1155InvalidOperator",
      "type": "error"
    },
    {
      "inputs": [
        {
          "internalType": "address",
          "name": "receiver",
          "type": "address"
        }
      ],
      "name": "ERC1155InvalidReceiver",
      "type": "error"
    },
    {
      "inputs": [
        {
          "internalType": "address",
          "name": "sender",
          "type": "address"
        }
      ],
      "name": "ERC1155InvalidSender",
      "type": "error"
    },
    {
      "inputs": [
        {
          "internalType": "address",
          "name": "operator",
          "type": "address"
        },
        {
          "internalType": "address",
          "name": "owner",
          "type": "address"
        }
      ],
      "name": "ERC1155MissingApprovalForAll",
      "type": "error"
    },
    {
      "inputs": [
        {
          "internalType": "address",
          "name": "owner",
          "type": "address"
        }
      ],
      "name": "OwnableInvalidOwner",
      "type": "error"
    },
    {
      "inputs": [
        {
          "internalType": "address",
          "name": "account",
          "type": "address"
        }
      ],
      "name": "OwnableUnauthorizedAccount",
      "type": "error"
    },
    {
      "anonymous": false,
      "inputs": [
        {
          "indexed": true,
          "internalType": "address",
          "name": "account",
          "type": "address"
        },
        {
          "indexed": true,
          "internalType": "address",
          "name": "operator",
          "type": "address"
        },
        {
          "indexed": false,
          "internalType": "bool",
          "name": "approved",
          "type": "bool"
        }
      ],
      "name": "ApprovalForAll",
      "type": "event"
    },
    {
      "anonymous": false,
      "inputs": [
        {
          "indexed": true,
          "internalType": "address",
          "name": "previousOwner",
          "type": "address"
        },
        {
          "indexed": true,
          "internalType": "address",
          "name": "newOwner",
          "type": "address"
        }
      ],
      "name": "OwnershipTransferred",
      "type": "event"
    },
    {
      "anonymous": false,
      "inputs": [
        {
          "indexed": true,
          "internalType": "address",
          "name": "operator",
          "type": "address"
        },
        {
          "indexed": true,
          "internalType": "address",
          "name": "from",
          "type": "address"
        },
        {
          "indexed": true,
          "internalType": "address",
          "name": "to",
          "type": "address"
        },
        {
          "indexed": false,
          "internalType": "uint256[]",
          "name": "ids",
          "type": "uint256[]"
        },
        {
          "indexed": false,
          "internalType": "uint256[]",
          "name": "values",
          "type": "uint256[]"
        }
      ],
      "name": "TransferBatch",
      "type": "event"
    },
    {
      "anonymous": false,
      "inputs": [
        {
          "indexed": true,
          "internalType": "address",
          "name": "operator",
          "type": "address"
        },
        {
          "indexed": true,
          "internalType": "address",
          "name": "from",
          "type": "address"
        },
        {
          "indexed": true,
          "internalType": "address",
          "name": "to",
          "type": "address"
        },
        {
          "indexed": false,
          "internalType": "uint256",
          "name": "id",
          "type": "uint256"
        },
        {
          "indexed": false,
          "internalType": "uint256",
          "name": "value",
          "type": "uint256"
        }
      ],
      "name": "TransferSingle",
      "type": "event"
    },
    {
      "anonymous": false,
      "inputs": [
        {
          "indexed": false,
          "internalType": "string",
          "name": "value",
          "type": "string"
        },
        {
          "indexed": true,
          "internalType": "uint256",
          "name": "id",
          "type": "uint256"
        }
      ],
      "name": "URI",
      "type": "event"
    },
    {
      "anonymous": false,
      "inputs": [
        {
          "indexed": true,
          "internalType": "string",
          "name": "uri",
          "type": "string"
        }
      ],
      "name": "UriUpdated",
      "type": "event"
    },
    {
      "inputs": [],
      "name": "MAX_SUPPLY",
      "outputs": [
        {
          "internalType": "uint8",
          "name": "",
          "type": "uint8"
        }
      ],
      "stateMutability": "view",
      "type": "function"
    },
    {
      "inputs": [],
      "name": "TOTAL_TOKENS",
      "outputs": [
        {
          "internalType": "uint8",
          "name": "",
          "type": "uint8"
        }
      ],
      "stateMutability": "view",
      "type": "function"
    },
    {
      "inputs": [
        {
          "internalType": "address",
          "name": "account",
          "type": "address"
        },
        {
          "internalType": "uint256",
          "name": "id",
          "type": "uint256"
        }
      ],
      "name": "balanceOf",
      "outputs": [
        {
          "internalType": "uint256",
          "name": "",
          "type": "uint256"
        }
      ],
      "stateMutability": "view",
      "type": "function"
    },
    {
      "inputs": [
        {
          "internalType": "address[]",
          "name": "accounts",
          "type": "address[]"
        },
        {
          "internalType": "uint256[]",
          "name": "ids",
          "type": "uint256[]"
        }
      ],
      "name": "balanceOfBatch",
      "outputs": [
        {
          "internalType": "uint256[]",
          "name": "",
          "type": "uint256[]"
        }
      ],
      "stateMutability": "view",
      "type": "function"
    },
    {
      "inputs": [
        {
          "internalType": "address",
          "name": "account",
          "type": "address"
        },
        {
          "internalType": "address",
          "name": "operator",
          "type": "address"
        }
      ],
      "name": "isApprovedForAll",
      "outputs": [
        {
          "internalType": "bool",
          "name": "",
          "type": "bool"
        }
      ],
      "stateMutability": "view",
      "type": "function"
    },
    {
      "inputs": [
        {
          "internalType": "uint256",
          "name": "_tokenId",
          "type": "uint256"
        },
        {
          "internalType": "address",
          "name": "_to",
          "type": "address"
        }
      ],
      "name": "mint",
      "outputs": [],
      "stateMutability": "nonpayable",
      "type": "function"
    },
    {
      "inputs": [],
      "name": "owner",
      "outputs": [
        {
          "internalType": "address",
          "name": "",
          "type": "address"
        }
      ],
      "stateMutability": "view",
      "type": "function"
    },
    {
      "inputs": [],
      "name": "renounceOwnership",
      "outputs": [],
      "stateMutability": "nonpayable",
      "type": "function"
    },
    {
      "inputs": [
        {
          "internalType": "address",
          "name": "from",
          "type": "address"
        },
        {
          "internalType": "address",
          "name": "to",
          "type": "address"
        },
        {
          "internalType": "uint256[]",
          "name": "ids",
          "type": "uint256[]"
        },
        {
          "internalType": "uint256[]",
          "name": "values",
          "type": "uint256[]"
        },
        {
          "internalType": "bytes",
          "name": "data",
          "type": "bytes"
        }
      ],
      "name": "safeBatchTransferFrom",
      "outputs": [],
      "stateMutability": "nonpayable",
      "type": "function"
    },
    {
      "inputs": [
        {
          "internalType": "address",
          "name": "from",
          "type": "address"
        },
        {
          "internalType": "address",
          "name": "to",
          "type": "address"
        },
        {
          "internalType": "uint256",
          "name": "id",
          "type": "uint256"
        },
        {
          "internalType": "uint256",
          "name": "value",
          "type": "uint256"
        },
        {
          "internalType": "bytes",
          "name": "data",
          "type": "bytes"
        }
      ],
      "name": "safeTransferFrom",
      "outputs": [],
      "stateMutability": "nonpayable",
      "type": "function"
    },
    {
      "inputs": [
        {
          "internalType": "address",
          "name": "operator",
          "type": "address"
        },
        {
          "internalType": "bool",
          "name": "approved",
          "type": "bool"
        }
      ],
      "name": "setApprovalForAll",
      "outputs": [],
      "stateMutability": "nonpayable",
      "type": "function"
    },
    {
      "inputs": [
        {
          "internalType": "uint8",
          "name": "_maxSupply",
          "type": "uint8"
        }
      ],
      "name": "setMaxSupply",
      "outputs": [],
      "stateMutability": "nonpayable",
      "type": "function"
    },
    {
      "inputs": [
        {
          "internalType": "string",
          "name": "_newuri",
          "type": "string"
        }
      ],
      "name": "setURI",
      "outputs": [],
      "stateMutability": "nonpayable",
      "type": "function"
    },
    {
      "inputs": [
        {
          "internalType": "bytes4",
          "name": "interfaceId",
          "type": "bytes4"
        }
      ],
      "name": "supportsInterface",
      "outputs": [
        {
          "internalType": "bool",
          "name": "",
          "type": "bool"
        }
      ],
      "stateMutability": "view",
      "type": "function"
    },
    {
      "inputs": [
        {
          "internalType": "uint256",
          "name": "_tokenId",
          "type": "uint256"
        }
      ],
      "name": "tokenExists",
      "outputs": [
        {
          "internalType": "bool",
          "name": "",
          "type": "bool"
        }
      ],
      "stateMutability": "pure",
      "type": "function"
    },
    {
      "inputs": [
        {
          "internalType": "address",
          "name": "newOwner",
          "type": "address"
        }
      ],
      "name": "transferOwnership",
      "outputs": [],
      "stateMutability": "nonpayable",
      "type": "function"
    },
    {
      "inputs": [
        {
          "internalType": "uint256",
          "name": "_tokenId",
          "type": "uint256"
        }
      ],
      "name": "uri",
      "outputs": [
        {
          "internalType": "string",
          "name": "",
          "type": "string"
        }
      ],
      "stateMutability": "view",
      "type": "function"
    }
  ],
  "bytecode": "0x60806040526005600360146101000a81548160ff021916908360ff16021790555060405180608001604052806051815260200161341f60519139600490816100479190610426565b5034801561005457600080fd5b503360405180602001604052806000815250610075816100fd60201b60201c565b50600073ffffffffffffffffffffffffffffffffffffffff168173ffffffffffffffffffffffffffffffffffffffff16036100e85760006040517f1e4fbdf70000000000000000000000000000000000000000000000000000000081526004016100df9190610539565b60405180910390fd5b6100f78161011060201b60201c565b50610554565b806002908161010c9190610426565b5050565b6000600360009054906101000a900473ffffffffffffffffffffffffffffffffffffffff16905081600360006101000a81548173ffffffffffffffffffffffffffffffffffffffff021916908373ffffffffffffffffffffffffffffffffffffffff1602179055508173ffffffffffffffffffffffffffffffffffffffff168173ffffffffffffffffffffffffffffffffffffffff167f8be0079c531659141344cd1fd0a4f28419497f9722a3daafe3b4186f6b6457e060405160405180910390a35050565b600081519050919050565b7f4e487b7100000000000000000000000000000000000000000000000000000000600052604160045260246000fd5b7f4e487b7100000000000000000000000000000000000000000000000000000000600052602260045260246000fd5b6000600282049050600182168061025757607f821691505b60208210810361026a57610269610210565b5b50919050565b60008190508160005260206000209050919050565b60006020601f8301049050919050565b600082821b905092915050565b6000600883026102d27fffffffffffffffffffffffffffffffffffffffffffffffffffffffffffffffff82610295565b6102dc8683610295565b95508019841693508086168417925050509392505050565b6000819050919050565b6000819050919050565b600061032361031e610319846102f4565b6102fe565b6102f4565b9050919050565b6000819050919050565b61033d83610308565b6103516103498261032a565b8484546102a2565b825550505050565b600090565b610366610359565b610371818484610334565b505050565b5b818110156103955761038a60008261035e565b600181019050610377565b5050565b601f8211156103da576103ab81610270565b6103b484610285565b810160208510156103c3578190505b6103d76103cf85610285565b830182610376565b50505b505050565b600082821c905092915050565b60006103fd600019846008026103df565b1980831691505092915050565b600061041683836103ec565b9150826002028217905092915050565b61042f826101d6565b67ffffffffffffffff811115610448576104476101e1565b5b610452825461023f565b61045d828285610399565b600060209050601f831160018114610490576000841561047e578287015190505b610488858261040a565b8655506104f0565b601f19841661049e86610270565b60005b828110156104c6578489015182556001820191506020850194506020810190506104a1565b868310156104e357848901516104df601f8916826103ec565b8355505b6001600288020188555050505b505050505050565b600073ffffffffffffffffffffffffffffffffffffffff82169050919050565b6000610523826104f8565b9050919050565b61053381610518565b82525050565b600060208201905061054e600083018461052a565b92915050565b612ebc806105636000396000f3fe608060405234801561001057600080fd5b50600436106101095760003560e01c80634e1273f4116100a257806394bf804d1161007157806394bf804d146102b6578063a22cb465146102d2578063e985e9c5146102ee578063f242432a1461031e578063f2fde38b1461033a57610109565b80634e1273f4146102425780636160b1a914610272578063715018a61461028e5780638da5cb5b1461029857610109565b80630b7abf77116100de5780630b7abf77146101ba5780630e89341c146101d85780632eb2c2d61461020857806332cb6b0c1461022457610109565b8062923f9e1461010e578062fdd58e1461013e57806301ffc9a71461016e57806302fe53051461019e575b600080fd5b61012860048036038101906101239190611ad4565b610356565b6040516101359190611b1c565b60405180910390f35b61015860048036038101906101539190611b95565b610372565b6040516101659190611be4565b60405180910390f35b61018860048036038101906101839190611c57565b6103cc565b6040516101959190611b1c565b60405180910390f35b6101b860048036038101906101b39190611dca565b6104ae565b005b6101c261050b565b6040516101cf9190611e2f565b60405180910390f35b6101f260048036038101906101ed9190611ad4565b610510565b6040516101ff9190611ec9565b60405180910390f35b610222600480360381019061021d9190612054565b61058c565b005b61022c610634565b6040516102399190611e2f565b60405180910390f35b61025c600480360381019061025791906121e6565b610647565b604051610269919061231c565b60405180910390f35b61028c6004803603810190610287919061236a565b610750565b005b610296610776565b005b6102a061078a565b6040516102ad91906123a6565b60405180910390f35b6102d060048036038101906102cb91906123c1565b6107b4565b005b6102ec60048036038101906102e7919061242d565b6108ac565b005b6103086004803603810190610303919061246d565b6108c2565b6040516103159190611b1c565b60405180910390f35b610338600480360381019061033391906124ad565b610956565b005b610354600480360381019061034f9190612544565b6109fe565b005b6000808211801561036b5750600a60ff168211155b9050919050565b600080600083815260200190815260200160002060008473ffffffffffffffffffffffffffffffffffffffff1673ffffffffffffffffffffffffffffffffffffffff16815260200190815260200160002054905092915050565b60007fd9b67a26000000000000000000000000000000000000000000000000000000007bffffffffffffffffffffffffffffffffffffffffffffffffffffffff1916827bffffffffffffffffffffffffffffffffffffffffffffffffffffffff1916148061049757507f0e89341c000000000000000000000000000000000000000000000000000000007bffffffffffffffffffffffffffffffffffffffffffffffffffffffff1916827bffffffffffffffffffffffffffffffffffffffffffffffffffffffff1916145b806104a757506104a682610a84565b5b9050919050565b6104b6610aee565b80600490816104c5919061277d565b50806040516104d4919061288b565b60405180910390207f4405f9f72187d24d444b6d55ef67bfb2ef76aacbc07d6d642a5763dd5fd77cbf60405160405180910390a250565b600a81565b606061051b82610356565b61055a576040517f08c379a000000000000000000000000000000000000000000000000000000000815260040161055190612914565b60405180910390fd5b600461056583610b75565b604051602001610576929190612a03565b6040516020818303038152906040529050919050565b6000610596610c43565b90508073ffffffffffffffffffffffffffffffffffffffff168673ffffffffffffffffffffffffffffffffffffffff16141580156105db57506105d986826108c2565b155b1561061f5780866040517fe237d922000000000000000000000000000000000000000000000000000000008152600401610616929190612a32565b60405180910390fd5b61062c8686868686610c4b565b505050505050565b600360149054906101000a900460ff1681565b6060815183511461069357815183516040517f5b05999100000000000000000000000000000000000000000000000000000000815260040161068a929190612a5b565b60405180910390fd5b6000835167ffffffffffffffff8111156106b0576106af611c9f565b5b6040519080825280602002602001820160405280156106de5781602001602082028036833780820191505090505b50905060005b84518110156107455761071b6107038287610d4390919063ffffffff16565b6107168387610d5790919063ffffffff16565b610372565b82828151811061072e5761072d612a84565b5b6020026020010181815250508060010190506106e4565b508091505092915050565b610758610aee565b80600360146101000a81548160ff021916908360ff16021790555050565b61077e610aee565b6107886000610d6b565b565b6000600360009054906101000a900473ffffffffffffffffffffffffffffffffffffffff16905090565b6107bd82610356565b6107fc576040517f08c379a00000000000000000000000000000000000000000000000000000000081526004016107f390612b25565b60405180910390fd5b600360149054906101000a900460ff1660ff16600560008481526020019081526020016000205410610863576040517f08c379a000000000000000000000000000000000000000000000000000000000815260040161085a90612bb7565b60405180910390fd5b60056000838152602001908152602001600020600081548092919061088790612c06565b91905055506108a88183600160405180602001604052806000815250610e31565b5050565b6108be6108b7610c43565b8383610eca565b5050565b6000600160008473ffffffffffffffffffffffffffffffffffffffff1673ffffffffffffffffffffffffffffffffffffffff16815260200190815260200160002060008373ffffffffffffffffffffffffffffffffffffffff1673ffffffffffffffffffffffffffffffffffffffff16815260200190815260200160002060009054906101000a900460ff16905092915050565b6000610960610c43565b90508073ffffffffffffffffffffffffffffffffffffffff168673ffffffffffffffffffffffffffffffffffffffff16141580156109a557506109a386826108c2565b155b156109e95780866040517fe237d9220000000000000000000000000000000000000000000000000000000081526004016109e0929190612a32565b60405180910390fd5b6109f6868686868661103a565b505050505050565b610a06610aee565b600073ffffffffffffffffffffffffffffffffffffffff168173ffffffffffffffffffffffffffffffffffffffff1603610a785760006040517f1e4fbdf7000000000000000000000000000000000000000000000000000000008152600401610a6f91906123a6565b60405180910390fd5b610a8181610d6b565b50565b60007f01ffc9a7000000000000000000000000000000000000000000000000000000007bffffffffffffffffffffffffffffffffffffffffffffffffffffffff1916827bffffffffffffffffffffffffffffffffffffffffffffffffffffffff1916149050919050565b610af6610c43565b73ffffffffffffffffffffffffffffffffffffffff16610b1461078a565b73ffffffffffffffffffffffffffffffffffffffff1614610b7357610b37610c43565b6040517f118cdaa7000000000000000000000000000000000000000000000000000000008152600401610b6a91906123a6565b60405180910390fd5b565b606060006001610b8484611145565b01905060008167ffffffffffffffff811115610ba357610ba2611c9f565b5b6040519080825280601f01601f191660200182016040528015610bd55781602001600182028036833780820191505090505b509050600082602001820190505b600115610c38578080600190039150507f3031323334353637383961626364656600000000000000000000000000000000600a86061a8153600a8581610c2c57610c2b612c4e565b5b04945060008503610be3575b819350505050919050565b600033905090565b600073ffffffffffffffffffffffffffffffffffffffff168473ffffffffffffffffffffffffffffffffffffffff1603610cbd5760006040517f57f447ce000000000000000000000000000000000000000000000000000000008152600401610cb491906123a6565b60405180910390fd5b600073ffffffffffffffffffffffffffffffffffffffff168573ffffffffffffffffffffffffffffffffffffffff1603610d2f5760006040517f01a83514000000000000000000000000000000000000000000000000000000008152600401610d2691906123a6565b60405180910390fd5b610d3c8585858585611298565b5050505050565b600060208202602084010151905092915050565b600060208202602084010151905092915050565b6000600360009054906101000a900473ffffffffffffffffffffffffffffffffffffffff16905081600360006101000a81548173ffffffffffffffffffffffffffffffffffffffff021916908373ffffffffffffffffffffffffffffffffffffffff1602179055508173ffffffffffffffffffffffffffffffffffffffff168173ffffffffffffffffffffffffffffffffffffffff167f8be0079c531659141344cd1fd0a4f28419497f9722a3daafe3b4186f6b6457e060405160405180910390a35050565b600073ffffffffffffffffffffffffffffffffffffffff168473ffffffffffffffffffffffffffffffffffffffff1603610ea35760006040517f57f447ce000000000000000000000000000000000000000000000000000000008152600401610e9a91906123a6565b60405180910390fd5b600080610eb0858561134a565b91509150610ec2600087848487611298565b505050505050565b600073ffffffffffffffffffffffffffffffffffffffff168273ffffffffffffffffffffffffffffffffffffffff1603610f3c5760006040517fced3e100000000000000000000000000000000000000000000000000000000008152600401610f3391906123a6565b60405180910390fd5b80600160008573ffffffffffffffffffffffffffffffffffffffff1673ffffffffffffffffffffffffffffffffffffffff16815260200190815260200160002060008473ffffffffffffffffffffffffffffffffffffffff1673ffffffffffffffffffffffffffffffffffffffff16815260200190815260200160002060006101000a81548160ff0219169083151502179055508173ffffffffffffffffffffffffffffffffffffffff168373ffffffffffffffffffffffffffffffffffffffff167f17307eab39ab6107e8899845ad3d59bd9653f200f220920489ca2b5937696c318360405161102d9190611b1c565b60405180910390a3505050565b600073ffffffffffffffffffffffffffffffffffffffff168473ffffffffffffffffffffffffffffffffffffffff16036110ac5760006040517f57f447ce0000000000000000000000000000000000000000000000000000000081526004016110a391906123a6565b60405180910390fd5b600073ffffffffffffffffffffffffffffffffffffffff168573ffffffffffffffffffffffffffffffffffffffff160361111e5760006040517f01a8351400000000000000000000000000000000000000000000000000000000815260040161111591906123a6565b60405180910390fd5b60008061112b858561134a565b9150915061113c8787848487611298565b50505050505050565b600080600090507a184f03e93ff9f4daa797ed6e38ed64bf6a1f01000000000000000083106111a3577a184f03e93ff9f4daa797ed6e38ed64bf6a1f010000000000000000838161119957611198612c4e565b5b0492506040810190505b6d04ee2d6d415b85acef810000000083106111e0576d04ee2d6d415b85acef810000000083816111d6576111d5612c4e565b5b0492506020810190505b662386f26fc10000831061120f57662386f26fc10000838161120557611204612c4e565b5b0492506010810190505b6305f5e1008310611238576305f5e100838161122e5761122d612c4e565b5b0492506008810190505b612710831061125d57612710838161125357611252612c4e565b5b0492506004810190505b60648310611280576064838161127657611275612c4e565b5b0492506002810190505b600a831061128f576001810190505b80915050919050565b6112a48585858561137a565b600073ffffffffffffffffffffffffffffffffffffffff168473ffffffffffffffffffffffffffffffffffffffff16146113435760006112e2610c43565b90506001845103611332576000611303600086610d5790919063ffffffff16565b9050600061131b600086610d5790919063ffffffff16565b905061132b838989858589611722565b5050611341565b6113408187878787876118d6565b5b505b5050505050565b60608060405191506001825283602083015260408201905060018152826020820152604081016040529250929050565b80518251146113c457815181516040517f5b0599910000000000000000000000000000000000000000000000000000000081526004016113bb929190612a5b565b60405180910390fd5b60006113ce610c43565b905060005b83518110156115dd5760006113f18286610d5790919063ffffffff16565b905060006114088386610d5790919063ffffffff16565b9050600073ffffffffffffffffffffffffffffffffffffffff168873ffffffffffffffffffffffffffffffffffffffff161461153557600080600084815260200190815260200160002060008a73ffffffffffffffffffffffffffffffffffffffff1673ffffffffffffffffffffffffffffffffffffffff168152602001908152602001600020549050818110156114dd57888183856040517f03dee4c50000000000000000000000000000000000000000000000000000000081526004016114d49493929190612c7d565b60405180910390fd5b81810360008085815260200190815260200160002060008b73ffffffffffffffffffffffffffffffffffffffff1673ffffffffffffffffffffffffffffffffffffffff16815260200190815260200160002081905550505b600073ffffffffffffffffffffffffffffffffffffffff168773ffffffffffffffffffffffffffffffffffffffff16146115d0578060008084815260200190815260200160002060008973ffffffffffffffffffffffffffffffffffffffff1673ffffffffffffffffffffffffffffffffffffffff16815260200190815260200160002060008282546115c89190612cc2565b925050819055505b50508060010190506113d3565b50600183510361169c5760006115fd600085610d5790919063ffffffff16565b90506000611615600085610d5790919063ffffffff16565b90508573ffffffffffffffffffffffffffffffffffffffff168773ffffffffffffffffffffffffffffffffffffffff168473ffffffffffffffffffffffffffffffffffffffff167fc3d58168c5ae7397731d063d5bbf3d657854427343f4c083240f7aacaa2d0f62858560405161168d929190612a5b565b60405180910390a4505061171b565b8373ffffffffffffffffffffffffffffffffffffffff168573ffffffffffffffffffffffffffffffffffffffff168273ffffffffffffffffffffffffffffffffffffffff167f4a39dc06d4c0dbc64b70af90fd698a233a518aa5d07e595d983b8c0526c8f7fb8686604051611712929190612cf6565b60405180910390a45b5050505050565b60008473ffffffffffffffffffffffffffffffffffffffff163b11156118ce578373ffffffffffffffffffffffffffffffffffffffff1663f23a6e6187878686866040518663ffffffff1660e01b8152600401611783959493929190612d82565b6020604051808303816000875af19250505080156117bf57506040513d601f19601f820116820180604052508101906117bc9190612df1565b60015b611843573d80600081146117ef576040519150601f19603f3d011682016040523d82523d6000602084013e6117f4565b606091505b50600081510361183b57846040517f57f447ce00000000000000000000000000000000000000000000000000000000815260040161183291906123a6565b60405180910390fd5b805181602001fd5b63f23a6e6160e01b7bffffffffffffffffffffffffffffffffffffffffffffffffffffffff1916817bffffffffffffffffffffffffffffffffffffffffffffffffffffffff1916146118cc57846040517f57f447ce0000000000000000000000000000000000000000000000000000000081526004016118c391906123a6565b60405180910390fd5b505b505050505050565b60008473ffffffffffffffffffffffffffffffffffffffff163b1115611a82578373ffffffffffffffffffffffffffffffffffffffff1663bc197c8187878686866040518663ffffffff1660e01b8152600401611937959493929190612e1e565b6020604051808303816000875af192505050801561197357506040513d601f19601f820116820180604052508101906119709190612df1565b60015b6119f7573d80600081146119a3576040519150601f19603f3d011682016040523d82523d6000602084013e6119a8565b606091505b5060008151036119ef57846040517f57f447ce0000000000000000000000000000000000000000000000000000000081526004016119e691906123a6565b60405180910390fd5b805181602001fd5b63bc197c8160e01b7bffffffffffffffffffffffffffffffffffffffffffffffffffffffff1916817bffffffffffffffffffffffffffffffffffffffffffffffffffffffff191614611a8057846040517f57f447ce000000000000000000000000000000000000000000000000000000008152600401611a7791906123a6565b60405180910390fd5b505b505050505050565b6000604051905090565b600080fd5b600080fd5b6000819050919050565b611ab181611a9e565b8114611abc57600080fd5b50565b600081359050611ace81611aa8565b92915050565b600060208284031215611aea57611ae9611a94565b5b6000611af884828501611abf565b91505092915050565b60008115159050919050565b611b1681611b01565b82525050565b6000602082019050611b316000830184611b0d565b92915050565b600073ffffffffffffffffffffffffffffffffffffffff82169050919050565b6000611b6282611b37565b9050919050565b611b7281611b57565b8114611b7d57600080fd5b50565b600081359050611b8f81611b69565b92915050565b60008060408385031215611bac57611bab611a94565b5b6000611bba85828601611b80565b9250506020611bcb85828601611abf565b9150509250929050565b611bde81611a9e565b82525050565b6000602082019050611bf96000830184611bd5565b92915050565b60007fffffffff0000000000000000000000000000000000000000000000000000000082169050919050565b611c3481611bff565b8114611c3f57600080fd5b50565b600081359050611c5181611c2b565b92915050565b600060208284031215611c6d57611c6c611a94565b5b6000611c7b84828501611c42565b91505092915050565b600080fd5b600080fd5b6000601f19601f8301169050919050565b7f4e487b7100000000000000000000000000000000000000000000000000000000600052604160045260246000fd5b611cd782611c8e565b810181811067ffffffffffffffff82111715611cf657611cf5611c9f565b5b80604052505050565b6000611d09611a8a565b9050611d158282611cce565b919050565b600067ffffffffffffffff821115611d3557611d34611c9f565b5b611d3e82611c8e565b9050602081019050919050565b82818337600083830152505050565b6000611d6d611d6884611d1a565b611cff565b905082815260208101848484011115611d8957611d88611c89565b5b611d94848285611d4b565b509392505050565b600082601f830112611db157611db0611c84565b5b8135611dc1848260208601611d5a565b91505092915050565b600060208284031215611de057611ddf611a94565b5b600082013567ffffffffffffffff811115611dfe57611dfd611a99565b5b611e0a84828501611d9c565b91505092915050565b600060ff82169050919050565b611e2981611e13565b82525050565b6000602082019050611e446000830184611e20565b92915050565b600081519050919050565b600082825260208201905092915050565b60005b83811015611e84578082015181840152602081019050611e69565b60008484015250505050565b6000611e9b82611e4a565b611ea58185611e55565b9350611eb5818560208601611e66565b611ebe81611c8e565b840191505092915050565b60006020820190508181036000830152611ee38184611e90565b905092915050565b600067ffffffffffffffff821115611f0657611f05611c9f565b5b602082029050602081019050919050565b600080fd5b6000611f2f611f2a84611eeb565b611cff565b90508083825260208201905060208402830185811115611f5257611f51611f17565b5b835b81811015611f7b5780611f678882611abf565b845260208401935050602081019050611f54565b5050509392505050565b600082601f830112611f9a57611f99611c84565b5b8135611faa848260208601611f1c565b91505092915050565b600067ffffffffffffffff821115611fce57611fcd611c9f565b5b611fd782611c8e565b9050602081019050919050565b6000611ff7611ff284611fb3565b611cff565b90508281526020810184848401111561201357612012611c89565b5b61201e848285611d4b565b509392505050565b600082601f83011261203b5761203a611c84565b5b813561204b848260208601611fe4565b91505092915050565b600080600080600060a086880312156120705761206f611a94565b5b600061207e88828901611b80565b955050602061208f88828901611b80565b945050604086013567ffffffffffffffff8111156120b0576120af611a99565b5b6120bc88828901611f85565b935050606086013567ffffffffffffffff8111156120dd576120dc611a99565b5b6120e988828901611f85565b925050608086013567ffffffffffffffff81111561210a57612109611a99565b5b61211688828901612026565b9150509295509295909350565b600067ffffffffffffffff82111561213e5761213d611c9f565b5b602082029050602081019050919050565b600061216261215d84612123565b611cff565b9050808382526020820190506020840283018581111561218557612184611f17565b5b835b818110156121ae578061219a8882611b80565b845260208401935050602081019050612187565b5050509392505050565b600082601f8301126121cd576121cc611c84565b5b81356121dd84826020860161214f565b91505092915050565b600080604083850312156121fd576121fc611a94565b5b600083013567ffffffffffffffff81111561221b5761221a611a99565b5b612227858286016121b8565b925050602083013567ffffffffffffffff81111561224857612247611a99565b5b61225485828601611f85565b9150509250929050565b600081519050919050565b600082825260208201905092915050565b6000819050602082019050919050565b61229381611a9e565b82525050565b60006122a5838361228a565b60208301905092915050565b6000602082019050919050565b60006122c98261225e565b6122d38185612269565b93506122de8361227a565b8060005b8381101561230f5781516122f68882612299565b9750612301836122b1565b9250506001810190506122e2565b5085935050505092915050565b6000602082019050818103600083015261233681846122be565b905092915050565b61234781611e13565b811461235257600080fd5b50565b6000813590506123648161233e565b92915050565b6000602082840312156123805761237f611a94565b5b600061238e84828501612355565b91505092915050565b6123a081611b57565b82525050565b60006020820190506123bb6000830184612397565b92915050565b600080604083850312156123d8576123d7611a94565b5b60006123e685828601611abf565b92505060206123f785828601611b80565b9150509250929050565b61240a81611b01565b811461241557600080fd5b50565b60008135905061242781612401565b92915050565b6000806040838503121561244457612443611a94565b5b600061245285828601611b80565b925050602061246385828601612418565b9150509250929050565b6000806040838503121561248457612483611a94565b5b600061249285828601611b80565b92505060206124a385828601611b80565b9150509250929050565b600080600080600060a086880312156124c9576124c8611a94565b5b60006124d788828901611b80565b95505060206124e888828901611b80565b94505060406124f988828901611abf565b935050606061250a88828901611abf565b925050608086013567ffffffffffffffff81111561252b5761252a611a99565b5b61253788828901612026565b9150509295509295909350565b60006020828403121561255a57612559611a94565b5b600061256884828501611b80565b91505092915050565b7f4e487b7100000000000000000000000000000000000000000000000000000000600052602260045260246000fd5b600060028204905060018216806125b857607f821691505b6020821081036125cb576125ca612571565b5b50919050565b60008190508160005260206000209050919050565b60006020601f8301049050919050565b600082821b905092915050565b6000600883026126337fffffffffffffffffffffffffffffffffffffffffffffffffffffffffffffffff826125f6565b61263d86836125f6565b95508019841693508086168417925050509392505050565b6000819050919050565b600061267a61267561267084611a9e565b612655565b611a9e565b9050919050565b6000819050919050565b6126948361265f565b6126a86126a082612681565b848454612603565b825550505050565b600090565b6126bd6126b0565b6126c881848461268b565b505050565b5b818110156126ec576126e16000826126b5565b6001810190506126ce565b5050565b601f82111561273157612702816125d1565b61270b846125e6565b8101602085101561271a578190505b61272e612726856125e6565b8301826126cd565b50505b505050565b600082821c905092915050565b600061275460001984600802612736565b1980831691505092915050565b600061276d8383612743565b9150826002028217905092915050565b61278682611e4a565b67ffffffffffffffff81111561279f5761279e611c9f565b5b6127a982546125a0565b6127b48282856126f0565b600060209050601f8311600181146127e757600084156127d5578287015190505b6127df8582612761565b865550612847565b601f1984166127f5866125d1565b60005b8281101561281d578489015182556001820191506020850194506020810190506127f8565b8683101561283a5784890151612836601f891682612743565b8355505b6001600288020188555050505b505050505050565b600081905092915050565b600061286582611e4a565b61286f818561284f565b935061287f818560208601611e66565b80840191505092915050565b6000612897828461285a565b915081905092915050565b7f5368657272794368726973746d61733a2055524920717565727920666f72206e60008201527f6f6e6578697374656e7420746f6b656e00000000000000000000000000000000602082015250565b60006128fe603083611e55565b9150612909826128a2565b604082019050919050565b6000602082019050818103600083015261292d816128f1565b9050919050565b60008154612941816125a0565b61294b818661284f565b94506001821660008114612966576001811461297b576129ae565b60ff19831686528115158202860193506129ae565b612984856125d1565b60005b838110156129a657815481890152600182019150602081019050612987565b838801955050505b50505092915050565b7f2e6a736f6e000000000000000000000000000000000000000000000000000000600082015250565b60006129ed60058361284f565b91506129f8826129b7565b600582019050919050565b6000612a0f8285612934565b9150612a1b828461285a565b9150612a26826129e0565b91508190509392505050565b6000604082019050612a476000830185612397565b612a546020830184612397565b9392505050565b6000604082019050612a706000830185611bd5565b612a7d6020830184611bd5565b9392505050565b7f4e487b7100000000000000000000000000000000000000000000000000000000600052603260045260246000fd5b7f5368657272794368726973746d61733a20746f6b656e4964206f7574206f662060008201527f72616e6765000000000000000000000000000000000000000000000000000000602082015250565b6000612b0f602583611e55565b9150612b1a82612ab3565b604082019050919050565b60006020820190508181036000830152612b3e81612b02565b9050919050565b7f5368657272794368726973746d61733a20746f6b656e20737570706c7920726560008201527f6163686564206d6178696d756d00000000000000000000000000000000000000602082015250565b6000612ba1602d83611e55565b9150612bac82612b45565b604082019050919050565b60006020820190508181036000830152612bd081612b94565b9050919050565b7f4e487b7100000000000000000000000000000000000000000000000000000000600052601160045260246000fd5b6000612c1182611a9e565b91507fffffffffffffffffffffffffffffffffffffffffffffffffffffffffffffffff8203612c4357612c42612bd7565b5b600182019050919050565b7f4e487b7100000000000000000000000000000000000000000000000000000000600052601260045260246000fd5b6000608082019050612c926000830187612397565b612c9f6020830186611bd5565b612cac6040830185611bd5565b612cb96060830184611bd5565b95945050505050565b6000612ccd82611a9e565b9150612cd883611a9e565b9250828201905080821115612cf057612cef612bd7565b5b92915050565b60006040820190508181036000830152612d1081856122be565b90508181036020830152612d2481846122be565b90509392505050565b600081519050919050565b600082825260208201905092915050565b6000612d5482612d2d565b612d5e8185612d38565b9350612d6e818560208601611e66565b612d7781611c8e565b840191505092915050565b600060a082019050612d976000830188612397565b612da46020830187612397565b612db16040830186611bd5565b612dbe6060830185611bd5565b8181036080830152612dd08184612d49565b90509695505050505050565b600081519050612deb81611c2b565b92915050565b600060208284031215612e0757612e06611a94565b5b6000612e1584828501612ddc565b91505092915050565b600060a082019050612e336000830188612397565b612e406020830187612397565b8181036040830152612e5281866122be565b90508181036060830152612e6681856122be565b90508181036080830152612e7a8184612d49565b9050969550505050505056fea2646970667358221220ef464317fc8f4d726a0be5c15a1f89c646b8a15db9ba14424fda31c246888b7f64736f6c634300081c003368747470733a2f2f697066732e696f2f697066732f62616679626569656e6d6f6c3561666a6c336d776272376771336c773473723568766a7a6e69746c6e777a756f656a6b796a6465796a796e7437712f",
  "linkReferences": {},
  "deployedLinkReferences": {}
}